:030000000208CB28
:0C08CB00787FE4F6D8FD75811F02091249
:1009A700FEFEFEFEFEFEFEFEFEFEFEFEFDFDFDFD64
:1009B700FDFFFAEBDAC9B6A28E7861482E12F5D69A
:0409C700B5926DFF79
:060AC100010900010A001A
:0A0A9300438921D2AFD2A9D28C22F0
:060AC800120A938F0B22BD
:03000B00020AA73F
:090AA700850D8C850E8AB2923295
:100A7300759850438921758DFDD28ED2AFD2AC22A9
:080AB9008F993099FDC29922CA
:100A3A00120A09FF600C120AB9740129F9E43AFA98
:030A4A0080EE2219
:0300230002095778
:0B095700C0E0C0D075D000C000C00799
:10096200309815C298AF99740F2509F8A6070509A2
:08097200E509B410037509004A
:09097A00D007D000D0D0D0E0324B
:030ACE00DFFE2226
:0709ED007F38120A4D7F055F
:1009F400AE07AF061EEF600C7FF5120ACE7FF5122C
:050A04000ACE80EE2285
:100A83007580FFC2A4D2A5C2A600D2A6E5803322F8
:100A4D00AD077F051209F4C2A4C2A5D2A68D800000
:030A5D00C2A6220C
:100A6000AD077F051209F4D2A4C2A5D2A68D8000DD
:030A7000C2A622F9
:0A0A9D007F01120A4D7F050209F4E3
:10098300AE07ED7005EE24808003EE24C0FF120A4B
:100993004D120A09FF600C120A60740129F9E43A46
:0409A300FA80EE22C6
:100A2200AE07AC03ED7005EE24808003EE24C0FF18
:080A3200120A4DAF04020A6034
:1009CB001209ED1209ED1209ED7F38120A4D7F085D
:1009DB00120A4D7F01120A4D7F061209EF7F0C029E
:0209EB000A4DB3
:090AB000850D8C850E8AD28C2282
:10080000438921D2AFD2A9C292120A73E4F51FE53F
:1008100009B401FBE4F509E50F14B41A0040030222
:1008200008C690083075F003A4C58325F0C583730E
:1008300002087E02088002088202088402088602FA
:10084000088802088A02088C02088E0208900208B2
:10085000920208940208960208AA0208AC0208AEA6
:100860000208B00208B20208B40208B60208B802D0
:1008700008BA0208BC0208BE0208C00208C28016FC
:10088000801480128010800E800C800A8008800600
:10089000800480028000D28CE50F9009A693F50DAC
:1008A000E50F9009B893F50E801C80168014801215
:1008B0008010800E800C800A8008800680048002F0
:0B08C0008000C28CC292C29202080F9E
:1008D700020800E493A3F8E493A34003F68001F22F
:1008E70008DFF48029E493A3F85407240CC8C33322
:1008F700C4540F4420C8834004F456800146F6DFF1
:10090700E4800B0102040810204080900AC1E47EB5
:10091700019360BCA3FF543F30E509541FFEE493E5
:10092700A360010ECF54C025E060A840B8E493A3AC
:10093700FAE493A3F8E493A3C8C582C8CAC583CAD7
:10094700F0A3C8C582C8CAC583CADFE9DEE780BE8F
:010AC700002E
:100A0900BB010689828A83E0225002E722BBFE02EB
:090A1900E32289828A83E493221E
:00000001FF
